:100000000C943A000C9464000C9432010C94A700F8
:100010000C9432010C9432010C9432010C94320194
:100020000C9432010C9432010C9432010C94320184
:100030000C9432010C9432010C9432010C94320174
:100040000C94DF000C9432010C9432010C943201B8
:100050000C9432010C9432010C9432010C94320154
:100060000C9432010C94320101000102000268017B
:100070000201058011241FBECFEFD8E0DEBFCDBF47
:10008000E8E6F0E040E017C0B591A59135912591E3
:10009000059107FD0CC095918591EF01F92FE82F8F
:1000A00005900D92A217B307D9F7FE0104C01D9267
:1000B000A217B307E1F7E437F40731F70E94130101
:0800C0000C946200F894FFCFDC
:1000C8001F920F920FB60F9211248F939F938FE375
:1000D8009CE90197F1F700C00000809104018F5F4F
:1000E8008093040180910401833011F4109204017B
:1000F80080910401811107C088EE93E0909301017B
:100108008093000115C080910401813039F484E6A0
:1001180090E090930101809300010AC0809104014E
:10012800823031F48AE090E09093010180930001DD
:1001380010920301109202019F918F910F900FBEB0
:060148000F901F901895B6
:10014E001F920F920FB60F9211248F939F931899AF
:10015E0002C0409A02C018994098199902C041985D
:10016E0002C01999419A1A9902C0429802C01A996E
:10017E00429A1B9902C0439802C01B99439A1C993C
:10018E0002C0449802C01C99449A1D9902C0459819
:10019E0002C01D99459A8FE39CE90197F1F700C0C3
:1001AE0000009F918F910F900FBE0F901F9018958A
:1001BE001F920F920FB60F9211242F933F938F938E
:1001CE009F9388EF86BD9BB188E089278BB980917C
:1001DE000201909103010196909303018093020115
:1001EE002091020130910301809100019091010153
:1001FE002817390741F49BB180E189278BB91092FA
:10020E000301109202019F918F913F912F910F90B8
:08021E000FBE0F901F90189510
:1002260014B89FE395B98FEF87B918B88BEF8AB9E1
:1002360084E08BB981E08093680090936B0092E034
:10024600909369008DBB98EF96BD95E095BD809320
:0E0256006E0083B18C7388B9419A7894FFCF03
:040264000C940000F6
:02026800E803A9
:00000001FF
